{
  "contractName": "KrishiMitra",
  "abi": [
    {
      "constant": true,
      "inputs": [
        {
          "name": "",
          "type": "uint256"
        }
      ],
      "name": "idSellMap",
      "outputs": [
        {
          "name": "seller",
          "type": "address"
        },
        {
          "name": "productID",
          "type": "uint256"
        },
        {
          "name": "price",
          "type": "uint256"
        }
      ],
      "payable": false,
      "stateMutability": "view",
      "type": "function"
    },
    {
      "constant": true,
      "inputs": [
        {
          "name": "",
          "type": "uint256"
        }
      ],
      "name": "idProductMap",
      "outputs": [
        {
          "name": "description",
          "type": "string"
        },
        {
          "name": "owner",
          "type": "address"
        },
        {
          "name": "price",
          "type": "uint256"
        }
      ],
      "payable": false,
      "stateMutability": "view",
      "type": "function"
    },
    {
      "constant": false,
      "inputs": [
        {
          "name": "description",
          "type": "string"
        },
        {
          "name": "price",
          "type": "uint256"
        }
      ],
      "name": "addProduct",
      "outputs": [
        {
          "name": "pID",
          "type": "uint256"
        }
      ],
      "payable": false,
      "stateMutability": "nonpayable",
      "type": "function"
    },
    {
      "constant": false,
      "inputs": [
        {
          "name": "_productID",
          "type": "uint256"
        },
        {
          "name": "_price",
          "type": "uint256"
        }
      ],
      "name": "listForSell",
      "outputs": [
        {
          "name": "_sellID",
          "type": "uint256"
        }
      ],
      "payable": false,
      "stateMutability": "nonpayable",
      "type": "function"
    },
    {
      "constant": false,
      "inputs": [
        {
          "name": "_sellID",
          "type": "uint256"
        }
      ],
      "name": "buy",
      "outputs": [
        {
          "name": "status",
          "type": "bool"
        }
      ],
      "payable": true,
      "stateMutability": "payable",
      "type": "function"
    },
    {
      "constant": true,
      "inputs": [],
      "name": "listSellable",
      "outputs": [
        {
          "name": "",
          "type": "uint256[]"
        }
      ],
      "payable": false,
      "stateMutability": "view",
      "type": "function"
    },
    {
      "constant": true,
      "inputs": [],
      "name": "productCount",
      "outputs": [
        {
          "name": "",
          "type": "uint256"
        }
      ],
      "payable": false,
      "stateMutability": "view",
      "type": "function"
    },
    {
      "constant": true,
      "inputs": [
        {
          "name": "_productID",
          "type": "uint256"
        }
      ],
      "name": "getProduct",
      "outputs": [
        {
          "name": "_description",
          "type": "string"
        },
        {
          "name": "_price",
          "type": "uint256"
        },
        {
          "name": "_owner",
          "type": "address"
        },
        {
          "name": "_Id",
          "type": "uint256"
        }
      ],
      "payable": false,
      "stateMutability": "view",
      "type": "function"
    },
    {
      "constant": true,
      "inputs": [
        {
          "name": "_addr",
          "type": "address"
        }
      ],
      "name": "getUser",
      "outputs": [
        {
          "name": "_ownings",
          "type": "uint256[]"
        },
        {
          "name": "_purchases",
          "type": "uint256[]"
        }
      ],
      "payable": false,
      "stateMutability": "view",
      "type": "function"
    },
    {
      "constant": true,
      "inputs": [],
      "name": "selfProfile",
      "outputs": [
        {
          "name": "_ownings",
          "type": "uint256[]"
        },
        {
          "name": "_purchases",
          "type": "uint256[]"
        }
      ],
      "payable": false,
      "stateMutability": "view",
      "type": "function"
    },
    {
      "constant": true,
      "inputs": [
        {
          "name": "_sellID",
          "type": "uint256"
        }
      ],
      "name": "sellDetails",
      "outputs": [
        {
          "name": "_description",
          "type": "string"
        },
        {
          "name": "_owner",
          "type": "address"
        },
        {
          "name": "_price",
          "type": "uint256"
        }
      ],
      "payable": false,
      "stateMutability": "view",
      "type": "function"
    }
  ],
  "bytecode": "0x608060405234801561001057600080fd5b50611cdb806100206000396000f3fe60806040526004361061009c5760003560e01c8063a00a9bdd11610064578063a00a9bdd14610391578063b15247d91461047f578063b9db15b414610565578063c170f3e11461065a578063d96a094a14610748578063e0f6ef871461078e5761009c565b806338445e38146100a15780633c8b9319146100fa57806362f2ee61146101835780636f77926b146102375780638250513814610325575b600080fd5b3480156100ad57600080fd5b506100e4600480360360408110156100c457600080fd5b8101908080359060200190929190803590602001909291905050506107b9565b6040518082815260200191505060405180910390f35b34801561010657600080fd5b506101336004803603602081101561011d57600080fd5b8101908080359060200190929190505050610901565b604051808473ffffffffffffffffffffffffffffffffffffffff1673ffffffffffffffffffffffffffffffffffffffff168152602001838152602001828152602001935050505060405180910390f35b34801561018f57600080fd5b5061019861094b565b604051808060200180602001838103835285818151815260200191508051906020019060200280838360005b838110156101df5780820151818401526020810190506101c4565b50505050905001838103825284818151815260200191508051906020019060200280838360005b83811015610221578082015181840152602081019050610206565b5050505090500194505050505060405180910390f35b34801561024357600080fd5b506102866004803603602081101561025a57600080fd5b81019080803573ffffffffffffffffffffffffffffffffffffffff169060200190929190505050610a7e565b604051808060200180602001838103835285818151815260200191508051906020019060200280838360005b838110156102cd5780820151818401526020810190506102b2565b50505050905001838103825284818151815260200191508051906020019060200280838360005b8381101561030f5780820151818401526020810190506102f4565b5050505090500194505050505060405180910390f35b34801561033157600080fd5b5061033a610bac565b6040518080602001828103825283818151815260200191508051906020019060200280838360005b8381101561037d578082015181840152602081019050610362565b505050509050019250505060405180910390f35b34801561039d57600080fd5b506103ca600480360360208110156103b457600080fd5b8101908080359060200190929190505050610c04565b60405180806020018473ffffffffffffffffffffffffffffffffffffffff1673ffffffffffffffffffffffffffffffffffffffff168152602001838152602001828103825285818151815260200191508051906020019080838360005b83811015610442578082015181840152602081019050610427565b50505050905090810190601f16801561046f5780820380516001836020036101000a031916815260200191505b5094505050505060405180910390f35b34801561048b57600080fd5b5061054f600480360360408110156104a257600080fd5b81019080803590602001906401000000008111156104bf57600080fd5b8201836020820111156104d157600080fd5b803590602001918460018302840111640100000000831117156104f357600080fd5b91908080601f016020809104026020016040519081016040528093929190818152602001838380828437600081840152601f19601f82011690508083019250505050505050919291929080359060200190929190505050610ce6565b6040518082815260200191505060405180910390f35b34801561057157600080fd5b5061059e6004803603602081101561058857600080fd5b8101908080359060200190929190505050610e1f565b60405180806020018581526020018473ffffffffffffffffffffffffffffffffffffffff1673ffffffffffffffffffffffffffffffffffffffff168152602001838152602001828103825286818151815260200191508051906020019080838360005b8381101561061c578082015181840152602081019050610601565b50505050905090810190601f1680156106495780820380516001836020036101000a031916815260200191505b509550505050505060405180910390f35b34801561066657600080fd5b506106936004803603602081101561067d57600080fd5b8101908080359060200190929190505050610f33565b60405180806020018473ffffffffffffffffffffffffffffffffffffffff1673ffffffffffffffffffffffffffffffffffffffff168152602001838152602001828103825285818151815260200191508051906020019080838360005b8381101561070b5780820151818401526020810190506106f0565b50505050905090810190601f1680156107385780820380516001836020036101000a031916815260200191505b5094505050505060405180910390f35b6107746004803603602081101561075e57600080fd5b810190808035906020019092919050505061106e565b604051808215151515815260200191505060405180910390f35b34801561079a57600080fd5b506107a3611bd4565b6040518082815260200191505060405180910390f35b60003373ffffffffffffffffffffffffffffffffffffffff166005600085815260200190815260200160002060010160009054906101000a900473ffffffffffffffffffffffffffffffffffffffff1673ffffffffffffffffffffffffffffffffffffffff161461082957600080fd5b600080815480929190600101919050555033600160008054815260200190815260200160002060000160006101000a81548173ffffffffffffffffffffffffffffffffffffffff021916908373ffffffffffffffffffffffffffffffffffffffff160217905550826001600080548152602001908152602001600020600101819055508160016000805481526020019081526020016000206002018190555060026000549080600181540180825580915050906001820390600052602060002001600090919290919091505550600054905092915050565b60016020528060005260406000206000915090508060000160009054906101000a900473ffffffffffffffffffffffffffffffffffffffff16908060010154908060020154905083565b6060806000339050600360008273ffffffffffffffffffffffffffffffffffffffff1673ffffffffffffffffffffffffffffffffffffffff1681526020019081526020016000206000018054806020026020016040519081016040528092919081815260200182805480156109df57602002820191906000526020600020905b8154815260200190600101908083116109cb575b50505050509250600360008273ffffffffffffffffffffffffffffffffffffffff1673ffffffffffffffffffffffffffffffffffffffff168152602001908152602001600020600101805480602002602001604051908101604052809291908181526020018280548015610a7257602002820191906000526020600020905b815481526020019060010190808311610a5e575b50505050509150509091565b606080600360008473ffffffffffffffffffffffffffffffffffffffff1673ffffffffffffffffffffffffffffffffffffffff168152602001908152602001600020600001805480602002602001604051908101604052809291908181526020018280548015610b0d57602002820191906000526020600020905b815481526020019060010190808311610af9575b50505050509150600360008473ffffffffffffffffffffffffffffffffffffffff1673ffffffffffffffffffffffffffffffffffffffff168152602001908152602001600020600101805480602002602001604051908101604052809291908181526020018280548015610ba057602002820191906000526020600020905b815481526020019060010190808311610b8c575b50505050509050915091565b60606002805480602002602001604051908101604052809291908181526020018280548015610bfa57602002820191906000526020600020905b815481526020019060010190808311610be6575b5050505050905090565b6005602052806000526040600020600091509050806000018054600181600116156101000203166002900480601f016020809104026020016040519081016040528092919081815260200182805460018160011615610100020316600290048015610cb05780601f10610c8557610100808354040283529160200191610cb0565b820191906000526020600020905b815481529060010190602001808311610c9357829003601f168201915b5050505050908060010160009054906101000a900473ffffffffffffffffffffffffffffffffffffffff16908060020154905083565b6000600460008154809291906001019190505550826005600060045481526020019081526020016000206000019080519060200190610d26929190611bde565b503360056000600454815260200190815260200160002060010160006101000a81548173ffffffffffffffffffffffffffffffffffffffff021916908373ffffffffffffffffffffffffffffffffffffffff1602179055508160056000600454815260200190815260200160002060020181905550600360003373ffffffffffffffffffffffffffffffffffffffff1673ffffffffffffffffffffffffffffffffffffffff16815260200190815260200160002060000160045490806001815401808255809150509060018203906000526020600020016000909192909190915055506004549050610e1881836107b9565b5092915050565b60606000806000600560008681526020019081526020016000206000018054600181600116156101000203166002900480601f016020809104026020016040519081016040528092919081815260200182805460018160011615610100020316600290048015610ed05780601f10610ea557610100808354040283529160200191610ed0565b820191906000526020600020905b815481529060010190602001808311610eb357829003601f168201915b50505050509350600560008681526020019081526020016000206002015492506005600086815260200190815260200160002060010160009054906101000a900473ffffffffffffffffffffffffffffffffffffffff1691508490509193509193565b606060008060056000600160008781526020019081526020016000206001015481526020019081526020016000206000018054600181600116156101000203166002900480601f016020809104026020016040519081016040528092919081815260200182805460018160011615610100020316600290048015610ff85780601f10610fcd57610100808354040283529160200191610ff8565b820191906000526020600020905b815481529060010190602001808311610fdb57829003601f168201915b50505050509250600560006001600087815260200190815260200160002060010154815260200190815260200160002060010160009054906101000a900473ffffffffffffffffffffffffffffffffffffffff169150600160008581526020019081526020016000206002015490509193909250565b60003460016000848152602001908152602001600020600201541461109257600080fd5b600061270f905033600560006001600087815260200190815260200160002060010154815260200190815260200160002060010160006101000a81548173ffffffffffffffffffffffffffffffffffffffff021916908373ffffffffffffffffffffffffffffffffffffffff160217905550600360003373ffffffffffffffffffffffffffffffffffffffff1673ffffffffffffffffffffffffffffffffffffffff1681526020019081526020016000206001016001600085815260200190815260200160002060010154908060018154018082558091505090600182039060005260206000200160009091929091909150555060008090505b600360006001600087815260200190815260200160002060000160009054906101000a900473ffffffffffffffffffffffffffffffffffffffff1673ffffffffffffffffffffffffffffffffffffffff1673ffffffffffffffffffffffffffffffffffffffff168152602001908152602001600020600001805490508110156112cf576001600085815260200190815260200160002060010154600360006001600088815260200190815260200160002060000160009054906101000a900473ffffffffffffffffffffffffffffffffffffffff1673ffffffffffffffffffffffffffffffffffffffff1673ffffffffffffffffffffffffffffffffffffffff16815260200190815260200160002060000182815481106112a957fe5b906000526020600020015414156112c2578091506112cf565b808060010191505061118c565b5061270e8110156116325760008190505b6001600360006001600088815260200190815260200160002060000160009054906101000a900473ffffffffffffffffffffffffffffffffffffffff1673ffffffffffffffffffffffffffffffffffffffff1673ffffffffffffffffffffffffffffffffffffffff168152602001908152602001600020600001805490500381101561149557600360006001600087815260200190815260200160002060000160009054906101000a900473ffffffffffffffffffffffffffffffffffffffff1673ffffffffffffffffffffffffffffffffffffffff1673ffffffffffffffffffffffffffffffffffffffff16815260200190815260200160002060000160018201815481106113ec57fe5b9060005260206000200154600360006001600088815260200190815260200160002060000160009054906101000a900473ffffffffffffffffffffffffffffffffffffffff1673ffffffffffffffffffffffffffffffffffffffff1673ffffffffffffffffffffffffffffffffffffffff168152602001908152602001600020600001828154811061147a57fe5b906000526020600020018190555080806001019150506112e0565b50600360006001600086815260200190815260200160002060000160009054906101000a900473ffffffffffffffffffffffffffffffffffffffff1673ffffffffffffffffffffffffffffffffffffffff1673ffffffffffffffffffffffffffffffffffffffff1681526020019081526020016000206000016001600360006001600088815260200190815260200160002060000160009054906101000a900473ffffffffffffffffffffffffffffffffffffffff1673ffffffffffffffffffffffffffffffffffffffff1673ffffffffffffffffffffffffffffffffffffffff16815260200190815260200160002060000180549050038154811061159757fe5b9060005260206000200160009055600360006001600086815260200190815260200160002060000160009054906101000a900473ffffffffffffffffffffffffffffffffffffffff1673ffffffffffffffffffffffffffffffffffffffff1673ffffffffffffffffffffffffffffffffffffffff1681526020019081526020016000206000018054809190600190036116309190611c5e565b505b600080600090505b600360006001600088815260200190815260200160002060000160009054906101000a900473ffffffffffffffffffffffffffffffffffffffff1673ffffffffffffffffffffffffffffffffffffffff1673ffffffffffffffffffffffffffffffffffffffff1681526020019081526020016000206001018054905081101561177d576001600086815260200190815260200160002060010154600360006001600089815260200190815260200160002060000160009054906101000a900473ffffffffffffffffffffffffffffffffffffffff1673ffffffffffffffffffffffffffffffffffffffff1673ffffffffffffffffffffffffffffffffffffffff168152602001908152602001600020600101828154811061175757fe5b906000526020600020015414156117705780915061177d565b808060010191505061163a565b5061270e811015611ae05760008190505b6001600360006001600089815260200190815260200160002060000160009054906101000a900473ffffffffffffffffffffffffffffffffffffffff1673ffffffffffffffffffffffffffffffffffffffff1673ffffffffffffffffffffffffffffffffffffffff168152602001908152602001600020600101805490500381101561194357600360006001600088815260200190815260200160002060000160009054906101000a900473ffffffffffffffffffffffffffffffffffffffff1673ffffffffffffffffffffffffffffffffffffffff1673ffffffffffffffffffffffffffffffffffffffff168152602001908152602001600020600101600182018154811061189a57fe5b9060005260206000200154600360006001600089815260200190815260200160002060000160009054906101000a900473ffffffffffffffffffffffffffffffffffffffff1673ffffffffffffffffffffffffffffffffffffffff1673ffffffffffffffffffffffffffffffffffffffff168152602001908152602001600020600101828154811061192857fe5b9060005260206000200181905550808060010191505061178e565b50600360006001600087815260200190815260200160002060000160009054906101000a900473ffffffffffffffffffffffffffffffffffffffff1673ffffffffffffffffffffffffffffffffffffffff1673ffffffffffffffffffffffffffffffffffffffff1681526020019081526020016000206001016001600360006001600089815260200190815260200160002060000160009054906101000a900473ffffffffffffffffffffffffffffffffffffffff1673ffffffffffffffffffffffffffffffffffffffff1673ffffffffffffffffffffffffffffffffffffffff168152602001908152602001600020600101805490500381548110611a4557fe5b9060005260206000200160009055600360006001600087815260200190815260200160002060000160009054906101000a900473ffffffffffffffffffffffffffffffffffffffff1673ffffffffffffffffffffffffffffffffffffffff1673ffffffffffffffffffffffffffffffffffffffff168152602001908152602001600020600101805480919060019003611ade9190611c5e565b505b600080600090505b600280549050811015611b29578560028281548110611b0357fe5b90600052602060002001541415611b1c57809150611b29565b8080600101915050611ae8565b5061270e811015611bc85760008190505b600160028054905003811015611b8d5760026001820181548110611b5a57fe5b906000526020600020015460028281548110611b7257fe5b90600052602060002001819055508080600101915050611b3a565b50600260016002805490500381548110611ba357fe5b90600052602060002001600090556002805480919060019003611bc69190611c5e565b505b60019350505050919050565b6000600454905090565b828054600181600116156101000203166002900490600052602060002090601f016020900481019282601f10611c1f57805160ff1916838001178555611c4d565b82800160010185558215611c4d579182015b82811115611c4c578251825591602001919060010190611c31565b5b509050611c5a9190611c8a565b5090565b815481835581811115611c8557818360005260206000209182019101611c849190611c8a565b5b505050565b611cac91905b80821115611ca8576000816000905550600101611c90565b5090565b9056fea165627a7a723058208298e3e2804e3a8ce464e4f414718b1e3759786c2bae929b8be5801755d23ae20029",
  "source": "pragma solidity >=0.4.22 <0.6.0;\ncontract KrishiMitra{\n    struct Product{\n        string description;\n        address owner;\n        uint price;\n    }\n    struct User{\n        uint[] ownings;\n        uint[] purchases;\n    }\n    struct sell{\n        address seller;\n       uint productID;\n       uint price;\n    }\n    uint sellID;\n    mapping(uint=>sell) public idSellMap;\n    uint[] forSale ;\n    mapping(address=>User)  addressUserMap;\n    uint productID;\n    mapping (uint=> Product) public idProductMap;\n    function addProduct(string memory description, uint price) public returns(uint pID){\n        productID++;\n        idProductMap[productID].description = description;\n        idProductMap[productID].owner = msg.sender;\n        idProductMap[productID].price = price;\n        addressUserMap[msg.sender].ownings.push(productID);\n        pID = productID;\n        listForSell(pID, price);\n    }\n    function listForSell(uint _productID, uint _price) public returns(uint _sellID){\n        require(idProductMap[_productID].owner == msg.sender);\n        sellID++;\n        idSellMap[sellID].seller = msg.sender;\n        idSellMap[sellID].productID = _productID;\n        idSellMap[sellID].price = _price;\n        forSale.push(sellID);\n        _sellID = sellID;\n    }\n    function buy(uint _sellID) payable public returns(bool status){\n        require(idSellMap[_sellID].price== msg.value);\n        uint index=9999;\n        idProductMap[idSellMap[_sellID].productID].owner = msg.sender;\n        addressUserMap[msg.sender].purchases.push(idSellMap[_sellID].productID);\n        for(uint i =0; i<addressUserMap[idSellMap[_sellID].seller].ownings.length; i++){\n            if(addressUserMap[idSellMap[_sellID].seller].ownings[i]==idSellMap[_sellID].productID){\n                index = i ;\n                break;\n            }\n        }\n        if(index < 9998){\n             for(uint j = index;j<addressUserMap[idSellMap[_sellID].seller].ownings.length-1;j++){\n                 addressUserMap[idSellMap[_sellID].seller].ownings[j]=addressUserMap[idSellMap[_sellID].seller].ownings[j+1];\n             }\n             delete addressUserMap[idSellMap[_sellID].seller].ownings[addressUserMap[idSellMap[_sellID].seller].ownings.length-1];\n             addressUserMap[idSellMap[_sellID].seller].ownings.length--;\n        }\n        uint index2;\n        for(uint i =0; i<addressUserMap[idSellMap[_sellID].seller].purchases.length; i++){\n            if(addressUserMap[idSellMap[_sellID].seller].purchases[i]==idSellMap[_sellID].productID){\n                index2 = i ;\n                break;\n            }\n        }\n        if(index2 < 9998){\n              for(uint j = index2;j<addressUserMap[idSellMap[_sellID].seller].purchases.length-1;j++){\n                 addressUserMap[idSellMap[_sellID].seller].purchases[j]=addressUserMap[idSellMap[_sellID].seller].purchases[j+1];\n              }\n             delete addressUserMap[idSellMap[_sellID].seller].purchases[addressUserMap[idSellMap[_sellID].seller].purchases.length-1];\n            addressUserMap[idSellMap[_sellID].seller].purchases.length--;\n        }\n        uint index3;\n        for(uint i =0; i<forSale.length; i++){\n            if(forSale[i]==_sellID){\n                index3 = i ;\n                break;\n            }\n        }\n        if(index3 < 9998){\n             for(uint j = index3;j<forSale.length-1;j++){\n                forSale[j]=forSale[j+1];\n             }\n              delete forSale[forSale.length-1];\n              forSale.length--;\n\n        }\n\n       status = true;\n\n    }\n    function listSellable()view public returns(uint[] memory){\n        return forSale;\n    }\n    function productCount () public  view returns(uint){\n        return productID;\n    }\n    function getProduct(uint _productID) public view returns(string memory _description, uint _price, address _owner, uint _Id){\n        _description = idProductMap[_productID].description;\n        _price = idProductMap[_productID].price;\n        _owner = idProductMap[_productID].owner;\n        _Id = _productID;\n    }\n    function getUser(address _addr) public view returns(uint[] memory _ownings, uint[] memory _purchases){\n        _ownings=addressUserMap[_addr].ownings;\n        _purchases = addressUserMap[_addr].purchases;\n    }\n    function selfProfile() public view returns(uint[]memory  _ownings, uint[] memory _purchases){\n        address _addr= msg.sender;\n        _ownings=addressUserMap[_addr].ownings;\n        _purchases = addressUserMap[_addr].purchases;\n    }\n    function sellDetails(uint _sellID) view public returns(string memory _description, address _owner, uint _price){\n        _description  = idProductMap[idSellMap[_sellID].productID].description;\n        _owner  = idProductMap[idSellMap[_sellID].productID].owner;\n        _price = idSellMap[_sellID].price;\n    }\n}\n",
  "sourcePath": "/home/manjain/Documents/Krishi-Mitra/frontend/contracts/KrishiMitra.sol",
  "compiler": {
    "name": "solc",
    "version": "0.5.8+commit.23d335f2.Emscripten.clang"
  },
  "schemaVersion": "3.0.15",
  "updatedAt": "2019-10-20T07:45:53.747Z",
  "devdoc": {
    "methods": {}
  },
  "userdoc": {
    "methods": {}
  }
}