{
  "contractName": "Helpers",
  "abi": [
    {
      "constant": true,
      "inputs": [],
      "name": "getUniswapDAIExchange",
      "outputs": [
        {
          "internalType": "address",
          "name": "ude",
          "type": "address"
        }
      ],
      "payable": false,
      "stateMutability": "pure",
      "type": "function"
    },
    {
      "constant": true,
      "inputs": [],
      "name": "getSaiAddress",
      "outputs": [
        {
          "internalType": "address",
          "name": "saiAddr",
          "type": "address"
        }
      ],
      "payable": false,
      "stateMutability": "pure",
      "type": "function"
    },
    {
      "constant": true,
      "inputs": [],
      "name": "getEthAddress",
      "outputs": [
        {
          "internalType": "address",
          "name": "daiAddr",
          "type": "address"
        }
      ],
      "payable": false,
      "stateMutability": "pure",
      "type": "function"
    }
  ],
  "bytecode": "0x608060405234801561001057600080fd5b50610168806100206000396000f3fe608060405234801561001057600080fd5b50600436106100415760003560e01c806324785172146100465780635dbade6814610090578063db5a5d99146100da575b600080fd5b61004e610124565b604051808273ffffffffffffffffffffffffffffffffffffffff1673ffffffffffffffffffffffffffffffffffffffff16815260200191505060405180910390f35b610098610129565b604051808273ffffffffffffffffffffffffffffffffffffffff1673ffffffffffffffffffffffffffffffffffffffff16815260200191505060405180910390f35b6100e261012e565b604051808273ffffffffffffffffffffffffffffffffffffffff1673ffffffffffffffffffffffffffffffffffffffff16815260200191505060405180910390f35b600090565b600090565b60009056fea265627a7a72315820868a61d0ca8a0b6de8e6e595cb778f8c0076366e9518a522cb63f6598cd6467964736f6c634300050c0032",
  "source": "pragma solidity >=0.4.22 <0.6.0;\n\nimport './SafeMath.sol';\n\ninterface ERC20Interface {\n    function allowance(address, address) external view returns (uint);\n    function balanceOf(address) external view returns (uint);\n    function approve(address, uint) external;\n    function transfer(address, uint) external returns (bool);\n    function transferFrom(address, address, uint) external returns (bool);\n}\n\n/** Swap Functionality */\ninterface ScdMcdMigration {\n    function swapEthToSai(uint daiAmt) external;\n}\ncontract Helpers{\n    \n    /**\n     * @dev get uniswap DAI exchange\n    */\n    function getUniswapDAIExchange() public pure returns (address ude) {\n        // ude = 0x09cabEC1eAd1c0Ba254B09efb3EE13841712bE14;\n        // Proxy Address\n    }\n    \n    function getSaiAddress() public pure returns (address saiAddr) {\n        // troller = 0x3d9819210A31b4961b30EF54bE2aeD79B9c9Cd3B;\n    }\n\n    /**\n     * @dev get Eth address\n     */\n    function getEthAddress() public pure returns (address daiAddr) {\n        // troller = 0x3d9819210A31b4961b30EF54bE2aeD79B9c9Cd3B;\n    }\n\n}\n\ncontract MigrationProxyActions is Helpers{\n\n    function swapEthToSai(\n        address userAddress,    // Migration contract address\n        uint wad                            // Amount to swap\n    ) internal\n    {\n        ERC20Interface sai = ERC20Interface(getSaiAddress());\n        ERC20Interface eth = ERC20Interface(getEthAddress());\n        if (eth.allowance(address(this), userAddress) < wad) {\n            sai.approve(userAddress, wad);\n        ScdMcdMigration(userAddress).swapEthToSai(wad);\n    }\n    }\n\n}\n\ncontract FarmEasy {\n    \n    using SafeMath for uint256;\n    \n    /** @dev Product Details\n     * @param index ID of the Product\n     * @param owner address of the farmer\n     * @parma category Classify as Crop, Livestock and Poultry\n     * @param name different products of crop/livestock/Poultry\n     * @param quantity Amount of product\n     */\n   struct Product {\n       bool active;\n       address owner;\n       string category;\n       string name;\n       uint256 quantity;\n       uint256 index;\n       uint256 sellingPrice;       //per piece\n    }\n    \n    /** @dev Farmer's Registration on platform\n     * @param farmer Eth Address of farmer\n     * @param farmAddress Name, Location, Country \n     * @param registeredProductsKeys Id of the registered products.\n     * @param soldProductsKeys Id of the Sell order records.\n     * @param registeredProducts Products registed by the farmer.\n     * @notice Products between RegisteredFarmers are added and removed from the registeredProducts array\n    @notice Famer address are generated when a farmer registers for the services\n     */\n    struct Farmer {\n        bool active;\n        address farmer;\n        string farmAddress;\n        uint256[] registeredProductsKeys;\n        uint256[] soldProductsKeys;\n        mapping(uint256 => Product) registeredProducts;\n    }\n    \n    struct Buyer{\n        bool active;\n        address buyer;\n        uint256[] boughtProductsKeys;\n        mapping (uint256 => Product) boughtProducts;\n    }\n    \n    /**\n     * Events\n     */\n    event FarmerRegistration(address _farmer);\n    event BuyerRegistration(address _farmer);\n    event SuccesfullyRegistered(address _farmer, uint256 index, string name, uint256 sellingPrice);\n    \n    /**\n     * Modifier\n     */\n     \n    modifier onlyAdmin() {\n        require(msg.sender == owner, \"Only owner can call this function\");\n        _;\n    }\n    address owner;\n    mapping(address => Farmer) RegisteredFarmers;\n    mapping(address => Buyer) RegisteredBuyers;\n    mapping(uint256 => Product) RegisteredProducts;\n    mapping(uint256 => Product) RequestedProducts;\n    \n    uint256 currentIndexProducts;\n    \n    constructor() public {\n        owner = msg.sender;\n    }\n    \n    /**\n     * FUNCTIONS\n     */\n     \n    function registerFarmer(string memory farmAddress) public returns(bool) {\n        require(msg.sender != address(0), \"Invalid sender address\");\n        require(!RegisteredFarmers[msg.sender].active, \"farmer already registered\");\n        RegisteredFarmers[msg.sender].active = true;\n        RegisteredFarmers[msg.sender].farmAddress = farmAddress;\n        RegisteredFarmers[msg.sender].farmer = msg.sender;\n        emit FarmerRegistration(msg.sender);\n        return RegisteredFarmers[msg.sender].active;\n    }\n    \n    function checkFarmerRegistration() public view returns(bool) {\n        require(msg.sender != address(0), \"Invalid sender address\");\n        return RegisteredFarmers[msg.sender].active;\n    }\n    \n    function registerProduct(string memory categories, uint256 sellingprice, string memory name) public returns(bool) {\n        require(msg.sender != address(0), \"Invalid sender address\");\n        require(RegisteredFarmers[msg.sender].active, \"farmer not registered\");\n        require(sellingprice > 0, \"selling price is required to be greater than 0\");\n\n        RegisteredProducts[currentIndexProducts].owner = msg.sender;\n        RegisteredProducts[currentIndexProducts].index = currentIndexProducts;\n        RegisteredProducts[currentIndexProducts].category = categories;\n        RegisteredProducts[currentIndexProducts].active = true;\n        RegisteredProducts[currentIndexProducts].name = name;\n        RegisteredProducts[currentIndexProducts].sellingPrice = sellingprice;\n\n        RegisteredFarmers[msg.sender].registeredProducts[currentIndexProducts] = RegisteredProducts[currentIndexProducts];\n        RegisteredFarmers[msg.sender].registeredProductsKeys.push(currentIndexProducts);\n        \n        currentIndexProducts = currentIndexProducts.add(1);\n        emit SuccesfullyRegistered(msg.sender, currentIndexProducts-1, name, sellingprice);\n        return true;\n    }\n\n    function getFarmerRegisteredProductKeys() public view returns(uint256[] memory) {\n        require(msg.sender != address(0), \"Invalid sender address\");\n        require(RegisteredFarmers[msg.sender].active, \"Famer not registered\");\n        return RegisteredFarmers[msg.sender].registeredProductsKeys;\n    }\n\n    function productExists(uint256 id) public view returns(bool) {\n        require(msg.sender != address(0), \"Invalid sender address\");\n        require(id >= 0, \"product id must be equal to and greater than 0\");\n        return RegisteredProducts[id].active;\n    }\n    \n    \n    function getTotalSupply() public view returns(uint256) {\n        require(msg.sender != address(0));\n        return currentIndexProducts;\n    }\n    \n    function registerBuyer() public returns(bool) {\n        require(msg.sender != address(0), \"Invalid sender address\");\n        require(!RegisteredBuyers[msg.sender].active, \"Buyer already registered\");\n        RegisteredBuyers[msg.sender].active = true;\n        RegisteredBuyers[msg.sender].buyer = msg.sender;\n        emit BuyerRegistration(msg.sender);\n        return true;\n    }\n    \n    function buyProduct(uint256 productId) public payable returns(bool) {\n        require(msg.sender != address(0), \"Invalid sender address\");\n        require(RegisteredFarmers[msg.sender].active, \"You currently not registered\");\n        require(RegisteredProducts[productId].active, \"Product already sold or does not exits\");\n        address productOwner = RegisteredProducts[productId].owner;\n        require(productOwner != msg.sender, \"Cannot buy a product from your self\");\n        require(RegisteredFarmers[productOwner].active, \"Product seller not  not registered\");\n        require(productId >= 0, \"Product Id must be equal to and greater than 0\");\n        require(msg.value > 0, \"Contract cut has to be greater than 0 Eth\");\n        RegisteredFarmers[msg.sender].active = false;\n        \n        RegisteredBuyers[msg.sender].boughtProducts[productId] = RegisteredFarmers[productOwner].registeredProducts[productId];\n        RegisteredBuyers[msg.sender].boughtProductsKeys.push(productId);\n\n        return true;\n    }\n}",
  "sourcePath": "/home/jarvis/repo/FarmEasy/contracts/FarmEasy.sol",
  "compiler": {
    "name": "solc",
    "version": "0.5.12+commit.7709ece9.Emscripten.clang"
  },
  "schemaVersion": "3.0.20",
  "updatedAt": "2020-01-17T06:02:55.365Z",
  "devdoc": {
    "methods": {
      "getEthAddress()": {
        "details": "get Eth address"
      },
      "getUniswapDAIExchange()": {
        "details": "get uniswap DAI exchange"
      }
    }
  },
  "userdoc": {
    "methods": {}
  }
}