{
  "contractName": "FarmEasy",
  "abi": [
    {
      "inputs": [],
      "payable": false,
      "stateMutability": "nonpayable",
      "type": "constructor"
    },
    {
      "anonymous": false,
      "inputs": [
        {
          "indexed": false,
          "name": "_farmer",
          "type": "address"
        }
      ],
      "name": "FarmerRegistration",
      "type": "event"
    },
    {
      "anonymous": false,
      "inputs": [
        {
          "indexed": false,
          "name": "_farmer",
          "type": "address"
        }
      ],
      "name": "BuyerRegistration",
      "type": "event"
    },
    {
      "anonymous": false,
      "inputs": [
        {
          "indexed": false,
          "name": "_farmer",
          "type": "address"
        },
        {
          "indexed": false,
          "name": "index",
          "type": "uint256"
        },
        {
          "indexed": false,
          "name": "name",
          "type": "string"
        },
        {
          "indexed": false,
          "name": "sellingPrice",
          "type": "uint256"
        }
      ],
      "name": "SuccesfullyRegistered",
      "type": "event"
    },
    {
      "constant": false,
      "inputs": [
        {
          "name": "farmAddress",
          "type": "string"
        }
      ],
      "name": "registerFarmer",
      "outputs": [
        {
          "name": "",
          "type": "bool"
        }
      ],
      "payable": false,
      "stateMutability": "nonpayable",
      "type": "function"
    },
    {
      "constant": true,
      "inputs": [],
      "name": "checkFarmerRegistration",
      "outputs": [
        {
          "name": "",
          "type": "bool"
        }
      ],
      "payable": false,
      "stateMutability": "view",
      "type": "function"
    },
    {
      "constant": false,
      "inputs": [
        {
          "name": "categories",
          "type": "string"
        },
        {
          "name": "sellingprice",
          "type": "uint256"
        },
        {
          "name": "name",
          "type": "string"
        }
      ],
      "name": "registerProduct",
      "outputs": [
        {
          "name": "",
          "type": "bool"
        }
      ],
      "payable": false,
      "stateMutability": "nonpayable",
      "type": "function"
    },
    {
      "constant": true,
      "inputs": [],
      "name": "getFarmerRegisteredProductKeys",
      "outputs": [
        {
          "name": "",
          "type": "uint256[]"
        }
      ],
      "payable": false,
      "stateMutability": "view",
      "type": "function"
    },
    {
      "constant": true,
      "inputs": [
        {
          "name": "id",
          "type": "uint256"
        }
      ],
      "name": "productExists",
      "outputs": [
        {
          "name": "",
          "type": "bool"
        }
      ],
      "payable": false,
      "stateMutability": "view",
      "type": "function"
    },
    {
      "constant": true,
      "inputs": [],
      "name": "getTotalSupply",
      "outputs": [
        {
          "name": "",
          "type": "uint256"
        }
      ],
      "payable": false,
      "stateMutability": "view",
      "type": "function"
    },
    {
      "constant": false,
      "inputs": [],
      "name": "registerBuyer",
      "outputs": [
        {
          "name": "",
          "type": "bool"
        }
      ],
      "payable": false,
      "stateMutability": "nonpayable",
      "type": "function"
    },
    {
      "constant": false,
      "inputs": [
        {
          "name": "productId",
          "type": "uint256"
        }
      ],
      "name": "buyProduct",
      "outputs": [
        {
          "name": "",
          "type": "bool"
        }
      ],
      "payable": true,
      "stateMutability": "payable",
      "type": "function"
    }
  ],
  "bytecode": "0x608060405234801561001057600080fd5b50336000806101000a81548173ffffffffffffffffffffffffffffffffffffffff021916908373ffffffffffffffffffffffffffffffffffffffff160217905550611e08806100606000396000f3fe60806040526004361061007b5760003560e01c8063af55ed641161004e578063af55ed6414610241578063c4e41b2214610294578063db362c03146102bf578063f7aa8a35146102ee5761007b565b8063010b0bf0146100805780637ba7295e146100ec5780638642269e146101cc578063a365a85e14610212575b600080fd5b34801561008c57600080fd5b5061009561046f565b6040518080602001828103825283818151815260200191508051906020019060200280838360005b838110156100d85780820151818401526020810190506100bd565b505050509050019250505060405180910390f35b3480156100f857600080fd5b506101b26004803603602081101561010f57600080fd5b810190808035906020019064010000000081111561012c57600080fd5b82018360208201111561013e57600080fd5b8035906020019184600183028401116401000000008311171561016057600080fd5b91908080601f016020809104026020016040519081016040528093929190818152602001838380828437600081840152601f19601f82011690508083019250505050505050919291929050505061066c565b604051808215151515815260200191505060405180910390f35b6101f8600480360360208110156101e257600080fd5b81019080803590602001909291905050506109bf565b604051808215151515815260200191505060405180910390f35b34801561021e57600080fd5b50610227611032565b604051808215151515815260200191505060405180910390f35b34801561024d57600080fd5b5061027a6004803603602081101561026457600080fd5b81019080803590602001909291905050506112df565b604051808215151515815260200191505060405180910390f35b3480156102a057600080fd5b506102a9611408565b6040518082815260200191505060405180910390f35b3480156102cb57600080fd5b506102d461144b565b604051808215151515815260200191505060405180910390f35b3480156102fa57600080fd5b506104556004803603606081101561031157600080fd5b810190808035906020019064010000000081111561032e57600080fd5b82018360208201111561034057600080fd5b8035906020019184600183028401116401000000008311171561036257600080fd5b91908080601f016020809104026020016040519081016040528093929190818152602001838380828437600081840152601f19601f82011690508083019250505050505050919291929080359060200190929190803590602001906401000000008111156103cf57600080fd5b8201836020820111156103e157600080fd5b8035906020019184600183028401116401000000008311171561040357600080fd5b91908080601f016020809104026020016040519081016040528093929190818152602001838380828437600081840152601f19601f820116905080830192505050505050509192919290505050611544565b604051808215151515815260200191505060405180910390f35b6060600073ffffffffffffffffffffffffffffffffffffffff163373ffffffffffffffffffffffffffffffffffffffff161415610514576040517f08c379a00000000000000000000000000000000000000000000000000000000081526004018080602001828103825260168152602001807f496e76616c69642073656e64657220616464726573730000000000000000000081525060200191505060405180910390fd5b600160003373ffffffffffffffffffffffffffffffffffffffff1673ffffffffffffffffffffffffffffffffffffffff16815260200190815260200160002060000160009054906101000a900460ff166105d6576040517f08c379a00000000000000000000000000000000000000000000000000000000081526004018080602001828103825260148152602001807f46616d6572206e6f74207265676973746572656400000000000000000000000081525060200191505060405180910390fd5b600160003373ffffffffffffffffffffffffffffffffffffffff1673ffffffffffffffffffffffffffffffffffffffff16815260200190815260200160002060020180548060200260200160405190810160405280929190818152602001828054801561066257602002820191906000526020600020905b81548152602001906001019080831161064e575b5050505050905090565b60008073ffffffffffffffffffffffffffffffffffffffff163373ffffffffffffffffffffffffffffffffffffffff161415610710576040517f08c379a00000000000000000000000000000000000000000000000000000000081526004018080602001828103825260168152602001807f496e76616c69642073656e64657220616464726573730000000000000000000081525060200191505060405180910390fd5b600160003373ffffffffffffffffffffffffffffffffffffffff1673ffffffffffffffffffffffffffffffffffffffff16815260200190815260200160002060000160009054906101000a900460ff16156107d3576040517f08c379a00000000000000000000000000000000000000000000000000000000081526004018080602001828103825260198152602001807f6661726d657220616c726561647920726567697374657265640000000000000081525060200191505060405180910390fd5b60018060003373ffffffffffffffffffffffffffffffffffffffff1673ffffffffffffffffffffffffffffffffffffffff16815260200190815260200160002060000160006101000a81548160ff02191690831515021790555081600160003373ffffffffffffffffffffffffffffffffffffffff1673ffffffffffffffffffffffffffffffffffffffff1681526020019081526020016000206001019080519060200190610883929190611b92565b5033600160003373ffffffffffffffffffffffffffffffffffffffff1673ffffffffffffffffffffffffffffffffffffffff16815260200190815260200160002060000160016101000a81548173ffffffffffffffffffffffffffffffffffffffff021916908373ffffffffffffffffffffffffffffffffffffffff1602179055507fd7fd0742064a47c627a4062c25e5425f45f191ae732e8d5f44a72b06b3968a7433604051808273ffffffffffffffffffffffffffffffffffffffff1673ffffffffffffffffffffffffffffffffffffffff16815260200191505060405180910390a1600160003373ffffffffffffffffffffffffffffffffffffffff1673ffffffffffffffffffffffffffffffffffffffff16815260200190815260200160002060000160009054906101000a900460ff169050919050565b60008073ffffffffffffffffffffffffffffffffffffffff163373ffffffffffffffffffffffffffffffffffffffff161415610a63576040517f08c379a00000000000000000000000000000000000000000000000000000000081526004018080602001828103825260168152602001807f496e76616c69642073656e64657220616464726573730000000000000000000081525060200191505060405180910390fd5b600160003373ffffffffffffffffffffffffffffffffffffffff1673ffffffffffffffffffffffffffffffffffffffff16815260200190815260200160002060000160009054906101000a900460ff16610b25576040517f08c379a000000000000000000000000000000000000000000000000000000000815260040180806020018281038252601c8152602001807f596f752063757272656e746c79206e6f7420726567697374657265640000000081525060200191505060405180910390fd5b6003600083815260200190815260200160002060000160009054906101000a900460ff16610b9e576040517f08c379a0000000000000000000000000000000000000000000000000000000008152600401808060200182810382526026815260200180611d956026913960400191505060405180910390fd5b60006003600084815260200190815260200160002060000160019054906101000a900473ffffffffffffffffffffffffffffffffffffffff1690503373ffffffffffffffffffffffffffffffffffffffff168173ffffffffffffffffffffffffffffffffffffffff161415610c5e576040517f08c379a0000000000000000000000000000000000000000000000000000000008152600401808060200182810382526023815260200180611d726023913960400191505060405180910390fd5b600160008273ffffffffffffffffffffffffffffffffffffffff1673ffffffffffffffffffffffffffffffffffffffff16815260200190815260200160002060000160009054906101000a900460ff16610d03576040517f08c379a0000000000000000000000000000000000000000000000000000000008152600401808060200182810382526022815260200180611dbb6022913960400191505060405180910390fd5b6000831015610d5d576040517f08c379a000000000000000000000000000000000000000000000000000000000815260040180806020018281038252602e815260200180611d1b602e913960400191505060405180910390fd5b60003411610db6576040517f08c379a0000000000000000000000000000000000000000000000000000000008152600401808060200182810382526029815260200180611d496029913960400191505060405180910390fd5b6000600160003373ffffffffffffffffffffffffffffffffffffffff1673ffffffffffffffffffffffffffffffffffffffff16815260200190815260200160002060000160006101000a81548160ff021916908315150217905550600160008273ffffffffffffffffffffffffffffffffffffffff1673ffffffffffffffffffffffffffffffffffffffff1681526020019081526020016000206004016000848152602001908152602001600020600260003373ffffffffffffffffffffffffffffffffffffffff1673ffffffffffffffffffffffffffffffffffffffff16815260200190815260200160002060020160008581526020019081526020016000206000820160009054906101000a900460ff168160000160006101000a81548160ff0219169083151502179055506000820160019054906101000a900473ffffffffffffffffffffffffffffffffffffffff168160000160016101000a81548173ffffffffffffffffffffffffffffffffffffffff021916908373ffffffffffffffffffffffffffffffffffffffff16021790555060018201816001019080546001816001161561010002031660029004610f72929190611c12565b5060028201816002019080546001816001161561010002031660029004610f9a929190611c12565b50600382015481600301556004820154816004015560058201548160050155905050600260003373ffffffffffffffffffffffffffffffffffffffff1673ffffffffffffffffffffffffffffffffffffffff1681526020019081526020016000206001018390806001815401808255809150509060018203906000526020600020016000909192909190915055506001915050919050565b60008073ffffffffffffffffffffffffffffffffffffffff163373ffffffffffffffffffffffffffffffffffffffff1614156110d6576040517f08c379a00000000000000000000000000000000000000000000000000000000081526004018080602001828103825260168152602001807f496e76616c69642073656e64657220616464726573730000000000000000000081525060200191505060405180910390fd5b600260003373ffffffffffffffffffffffffffffffffffffffff1673ffffffffffffffffffffffffffffffffffffffff16815260200190815260200160002060000160009054906101000a900460ff1615611199576040517f08c379a00000000000000000000000000000000000000000000000000000000081526004018080602001828103825260188152602001807f427579657220616c72656164792072656769737465726564000000000000000081525060200191505060405180910390fd5b6001600260003373ffffffffffffffffffffffffffffffffffffffff1673ffffffffffffffffffffffffffffffffffffffff16815260200190815260200160002060000160006101000a81548160ff02191690831515021790555033600260003373ffffffffffffffffffffffffffffffffffffffff1673ffffffffffffffffffffffffffffffffffffffff16815260200190815260200160002060000160016101000a81548173ffffffffffffffffffffffffffffffffffffffff021916908373ffffffffffffffffffffffffffffffffffffffff1602179055507fc0d578ccadb08dc99c3759cfd99fe4edecc1596768d751bd93b671ac7f8ff81b33604051808273ffffffffffffffffffffffffffffffffffffffff1673ffffffffffffffffffffffffffffffffffffffff16815260200191505060405180910390a16001905090565b60008073ffffffffffffffffffffffffffffffffffffffff163373ffffffffffffffffffffffffffffffffffffffff161415611383576040517f08c379a00000000000000000000000000000000000000000000000000000000081526004018080602001828103825260168152602001807f496e76616c69642073656e64657220616464726573730000000000000000000081525060200191505060405180910390fd5b60008210156113dd576040517f08c379a000000000000000000000000000000000000000000000000000000000815260040180806020018281038252602e815260200180611cbf602e913960400191505060405180910390fd5b6003600083815260200190815260200160002060000160009054906101000a900460ff169050919050565b60008073ffffffffffffffffffffffffffffffffffffffff163373ffffffffffffffffffffffffffffffffffffffff16141561144357600080fd5b600554905090565b60008073ffffffffffffffffffffffffffffffffffffffff163373ffffffffffffffffffffffffffffffffffffffff1614156114ef576040517f08c379a00000000000000000000000000000000000000000000000000000000081526004018080602001828103825260168152602001807f496e76616c69642073656e64657220616464726573730000000000000000000081525060200191505060405180910390fd5b600160003373ffffffffffffffffffffffffffffffffffffffff1673ffffffffffffffffffffffffffffffffffffffff16815260200190815260200160002060000160009054906101000a900460ff16905090565b60008073ffffffffffffffffffffffffffffffffffffffff163373ffffffffffffffffffffffffffffffffffffffff1614156115e8576040517f08c379a00000000000000000000000000000000000000000000000000000000081526004018080602001828103825260168152602001807f496e76616c69642073656e64657220616464726573730000000000000000000081525060200191505060405180910390fd5b600160003373ffffffffffffffffffffffffffffffffffffffff1673ffffffffffffffffffffffffffffffffffffffff16815260200190815260200160002060000160009054906101000a900460ff166116aa576040517f08c379a00000000000000000000000000000000000000000000000000000000081526004018080602001828103825260158152602001807f6661726d6572206e6f742072656769737465726564000000000000000000000081525060200191505060405180910390fd5b60008311611703576040517f08c379a000000000000000000000000000000000000000000000000000000000815260040180806020018281038252602e815260200180611ced602e913960400191505060405180910390fd5b3360036000600554815260200190815260200160002060000160016101000a81548173ffffffffffffffffffffffffffffffffffffffff021916908373ffffffffffffffffffffffffffffffffffffffff160217905550600554600360006005548152602001908152602001600020600401819055508360036000600554815260200190815260200160002060010190805190602001906117a5929190611b92565b50600160036000600554815260200190815260200160002060000160006101000a81548160ff021916908315150217905550816003600060055481526020019081526020016000206002019080519060200190611803929190611b92565b508260036000600554815260200190815260200160002060050181905550600360006005548152602001908152602001600020600160003373ffffffffffffffffffffffffffffffffffffffff1673ffffffffffffffffffffffffffffffffffffffff168152602001908152602001600020600401600060055481526020019081526020016000206000820160009054906101000a900460ff168160000160006101000a81548160ff0219169083151502179055506000820160019054906101000a900473ffffffffffffffffffffffffffffffffffffffff168160000160016101000a81548173ffffffffffffffffffffffffffffffffffffffff021916908373ffffffffffffffffffffffffffffffffffffffff16021790555060018201816001019080546001816001161561010002031660029004611946929190611c12565b506002820181600201908054600181600116156101000203166002900461196e929190611c12565b50600382015481600301556004820154816004015560058201548160050155905050600160003373ffffffffffffffffffffffffffffffffffffffff1673ffffffffffffffffffffffffffffffffffffffff1681526020019081526020016000206002016005549080600181540180825580915050906001820390600052602060002001600090919290919091505550611a146001600554611b0a90919063ffffffff16565b6005819055507f80443a7d25dd99d2b801a3b849552bbe74973ab3bff2b8620c87dee875568c23336001600554038486604051808573ffffffffffffffffffffffffffffffffffffffff1673ffffffffffffffffffffffffffffffffffffffff16815260200184815260200180602001838152602001828103825284818151815260200191508051906020019080838360005b83811015611ac2578082015181840152602081019050611aa7565b50505050905090810190601f168015611aef5780820380516001836020036101000a031916815260200191505b509550505050505060405180910390a1600190509392505050565b600080828401905083811015611b88576040517f08c379a000000000000000000000000000000000000000000000000000000000815260040180806020018281038252601b8152602001807f536166654d6174683a206164646974696f6e206f766572666c6f77000000000081525060200191505060405180910390fd5b8091505092915050565b828054600181600116156101000203166002900490600052602060002090601f016020900481019282601f10611bd357805160ff1916838001178555611c01565b82800160010185558215611c01579182015b82811115611c00578251825591602001919060010190611be5565b5b509050611c0e9190611c99565b5090565b828054600181600116156101000203166002900490600052602060002090601f016020900481019282601f10611c4b5780548555611c88565b82800160010185558215611c8857600052602060002091601f016020900482015b82811115611c87578254825591600101919060010190611c6c565b5b509050611c959190611c99565b5090565b611cbb91905b80821115611cb7576000816000905550600101611c9f565b5090565b9056fe70726f64756374206964206d75737420626520657175616c20746f20616e642067726561746572207468616e203073656c6c696e6720707269636520697320726571756972656420746f2062652067726561746572207468616e203050726f64756374204964206d75737420626520657175616c20746f20616e642067726561746572207468616e2030436f6e7472616374206375742068617320746f2062652067726561746572207468616e20302045746843616e6e6f742062757920612070726f647563742066726f6d20796f75722073656c6650726f6475637420616c726561647920736f6c64206f7220646f6573206e6f7420657869747350726f647563742073656c6c6572206e6f7420206e6f742072656769737465726564a165627a7a723058207047bfad0f4a2879980def05dac9f8802b7bdee958a2eb49c194ef535bf0c5b70029",
  "source": "pragma solidity >=0.4.22 <0.6.0;\n\nimport './SafeMath.sol';\n\ninterface ERC20Interface {\n    function allowance(address, address) external view returns (uint);\n    function balanceOf(address) external view returns (uint);\n    function approve(address, uint) external;\n    function transfer(address, uint) external returns (bool);\n    function transferFrom(address, address, uint) external returns (bool);\n}\n\n/** Swap Functionality */\ninterface ScdMcdMigration {\n    function swapEthToSai(uint daiAmt) external;\n}\ncontract Helpers{\n    \n    /**\n     * @dev get uniswap DAI exchange\n    */\n    function getUniswapDAIExchange() public pure returns (address ude) {\n        // ude = 0x09cabEC1eAd1c0Ba254B09efb3EE13841712bE14;\n        // Proxy Address\n    }\n    \n    function getSaiAddress() public pure returns (address saiAddr) {\n        // troller = 0x3d9819210A31b4961b30EF54bE2aeD79B9c9Cd3B;\n    }\n\n    /**\n     * @dev get Eth address\n     */\n    function getEthAddress() public pure returns (address daiAddr) {\n        // troller = 0x3d9819210A31b4961b30EF54bE2aeD79B9c9Cd3B;\n    }\n\n}\n\ncontract MigrationProxyActions is Helpers{\n\n    function swapEthToSai(\n        address userAddress,    // Migration contract address\n        uint wad                            // Amount to swap\n    ) internal\n    {\n        ERC20Interface sai = ERC20Interface(getSaiAddress());\n        ERC20Interface eth = ERC20Interface(getEthAddress());\n        if (eth.allowance(address(this), userAddress) < wad) {\n            sai.approve(userAddress, wad);\n        ScdMcdMigration(userAddress).swapEthToSai(wad);\n    }\n    }\n\n}\n\ncontract FarmEasy {\n    \n    using SafeMath for uint256;\n    \n    /** @dev Product Details\n     * @param index ID of the Product\n     * @param owner address of the farmer\n     * @parma category Classify as Crop, Livestock and Poultry\n     * @param name different products of crop/livestock/Poultry\n     * @param quantity Amount of product\n     */\n   struct Product {\n       bool active;\n       address owner;\n       string category;\n       string name;\n       uint256 quantity;\n       uint256 index;\n       uint256 sellingPrice;       //per piece\n    }\n    \n    /** @dev Farmer's Registration on platform\n     * @param farmer Eth Address of farmer\n     * @param farmAddress Name, Location, Country \n     * @param registeredProductsKeys Id of the registered products.\n     * @param soldProductsKeys Id of the Sell order records.\n     * @param registeredProducts Products registed by the farmer.\n     * @notice Products between RegisteredFarmers are added and removed from the registeredProducts array\n    @notice Famer address are generated when a farmer registers for the services\n     */\n    struct Farmer {\n        bool active;\n        address farmer;\n        string farmAddress;\n        uint256[] registeredProductsKeys;\n        uint256[] soldProductsKeys;\n        mapping(uint256 => Product) registeredProducts;\n    }\n    \n    struct Buyer{\n        bool active;\n        address buyer;\n        uint256[] boughtProductsKeys;\n        mapping (uint256 => Product) boughtProducts;\n    }\n    \n    /**\n     * Events\n     */\n    event FarmerRegistration(address _farmer);\n    event BuyerRegistration(address _farmer);\n    event SuccesfullyRegistered(address _farmer, uint256 index, string name, uint256 sellingPrice);\n    \n    /**\n     * Modifier\n     */\n     \n    modifier onlyAdmin() {\n        require(msg.sender == owner, \"Only owner can call this function\");\n        _;\n    }\n    address owner;\n    mapping(address => Farmer) RegisteredFarmers;\n    mapping(address => Buyer) RegisteredBuyers;\n    mapping(uint256 => Product) RegisteredProducts;\n    mapping(uint256 => Product) RequestedProducts;\n    \n    uint256 currentIndexProducts;\n    \n    constructor() public {\n        owner = msg.sender;\n    }\n    \n    /**\n     * FUNCTIONS\n     */\n     \n    function registerFarmer(string memory farmAddress) public returns(bool) {\n        require(msg.sender != address(0), \"Invalid sender address\");\n        require(!RegisteredFarmers[msg.sender].active, \"farmer already registered\");\n        RegisteredFarmers[msg.sender].active = true;\n        RegisteredFarmers[msg.sender].farmAddress = farmAddress;\n        RegisteredFarmers[msg.sender].farmer = msg.sender;\n        emit FarmerRegistration(msg.sender);\n        return RegisteredFarmers[msg.sender].active;\n    }\n    \n    function checkFarmerRegistration() public view returns(bool) {\n        require(msg.sender != address(0), \"Invalid sender address\");\n        return RegisteredFarmers[msg.sender].active;\n    }\n    \n    function registerProduct(string memory categories, uint256 sellingprice, string memory name) public returns(bool) {\n        require(msg.sender != address(0), \"Invalid sender address\");\n        require(RegisteredFarmers[msg.sender].active, \"farmer not registered\");\n        require(sellingprice > 0, \"selling price is required to be greater than 0\");\n\n        RegisteredProducts[currentIndexProducts].owner = msg.sender;\n        RegisteredProducts[currentIndexProducts].index = currentIndexProducts;\n        RegisteredProducts[currentIndexProducts].category = categories;\n        RegisteredProducts[currentIndexProducts].active = true;\n        RegisteredProducts[currentIndexProducts].name = name;\n        RegisteredProducts[currentIndexProducts].sellingPrice = sellingprice;\n\n        RegisteredFarmers[msg.sender].registeredProducts[currentIndexProducts] = RegisteredProducts[currentIndexProducts];\n        RegisteredFarmers[msg.sender].registeredProductsKeys.push(currentIndexProducts);\n        \n        currentIndexProducts = currentIndexProducts.add(1);\n        emit SuccesfullyRegistered(msg.sender, currentIndexProducts-1, name, sellingprice);\n        return true;\n    }\n\n    function getFarmerRegisteredProductKeys() public view returns(uint256[] memory) {\n        require(msg.sender != address(0), \"Invalid sender address\");\n        require(RegisteredFarmers[msg.sender].active, \"Famer not registered\");\n        return RegisteredFarmers[msg.sender].registeredProductsKeys;\n    }\n\n    function productExists(uint256 id) public view returns(bool) {\n        require(msg.sender != address(0), \"Invalid sender address\");\n        require(id >= 0, \"product id must be equal to and greater than 0\");\n        return RegisteredProducts[id].active;\n    }\n    \n    \n    function getTotalSupply() public view returns(uint256) {\n        require(msg.sender != address(0));\n        return currentIndexProducts;\n    }\n    \n    function registerBuyer() public returns(bool) {\n        require(msg.sender != address(0), \"Invalid sender address\");\n        require(!RegisteredBuyers[msg.sender].active, \"Buyer already registered\");\n        RegisteredBuyers[msg.sender].active = true;\n        RegisteredBuyers[msg.sender].buyer = msg.sender;\n        emit BuyerRegistration(msg.sender);\n        return true;\n    }\n    \n    function buyProduct(uint256 productId) public payable returns(bool) {\n        require(msg.sender != address(0), \"Invalid sender address\");\n        require(RegisteredFarmers[msg.sender].active, \"You currently not registered\");\n        require(RegisteredProducts[productId].active, \"Product already sold or does not exits\");\n        address productOwner = RegisteredProducts[productId].owner;\n        require(productOwner != msg.sender, \"Cannot buy a product from your self\");\n        require(RegisteredFarmers[productOwner].active, \"Product seller not  not registered\");\n        require(productId >= 0, \"Product Id must be equal to and greater than 0\");\n        require(msg.value > 0, \"Contract cut has to be greater than 0 Eth\");\n        RegisteredFarmers[msg.sender].active = false;\n        \n        RegisteredBuyers[msg.sender].boughtProducts[productId] = RegisteredFarmers[productOwner].registeredProducts[productId];\n        RegisteredBuyers[msg.sender].boughtProductsKeys.push(productId);\n\n        return true;\n    }\n}",
  "sourcePath": "/home/sanchaymittal/FarmEasy/contracts/FarmEasy.sol",
  "compiler": {
    "name": "solc",
    "version": "0.5.8+commit.23d335f2.Emscripten.clang"
  },
  "schemaVersion": "3.0.16",
  "updatedAt": "2019-10-20T10:13:38.076Z",
  "devdoc": {
    "methods": {}
  },
  "userdoc": {
    "methods": {
      "registerFarmer(string)": {
        "notice": "FUNCTIONS"
      }
    }
  }
}