{
  "contractName": "Pot",
  "abi": [
    {
      "constant": true,
      "inputs": [
        {
          "name": "",
          "type": "address"
        }
      ],
      "name": "pie",
      "outputs": [
        {
          "name": "",
          "type": "uint256"
        }
      ],
      "payable": false,
      "stateMutability": "view",
      "type": "function"
    },
    {
      "constant": true,
      "inputs": [],
      "name": "rho",
      "outputs": [
        {
          "name": "",
          "type": "uint256"
        }
      ],
      "payable": false,
      "stateMutability": "view",
      "type": "function"
    },
    {
      "constant": true,
      "inputs": [],
      "name": "Pie",
      "outputs": [
        {
          "name": "",
          "type": "uint256"
        }
      ],
      "payable": false,
      "stateMutability": "view",
      "type": "function"
    },
    {
      "constant": true,
      "inputs": [],
      "name": "dsr",
      "outputs": [
        {
          "name": "",
          "type": "uint256"
        }
      ],
      "payable": false,
      "stateMutability": "view",
      "type": "function"
    },
    {
      "constant": true,
      "inputs": [],
      "name": "vow",
      "outputs": [
        {
          "name": "",
          "type": "address"
        }
      ],
      "payable": false,
      "stateMutability": "view",
      "type": "function"
    },
    {
      "constant": true,
      "inputs": [],
      "name": "live",
      "outputs": [
        {
          "name": "",
          "type": "uint256"
        }
      ],
      "payable": false,
      "stateMutability": "view",
      "type": "function"
    },
    {
      "constant": true,
      "inputs": [
        {
          "name": "",
          "type": "address"
        }
      ],
      "name": "wards",
      "outputs": [
        {
          "name": "",
          "type": "uint256"
        }
      ],
      "payable": false,
      "stateMutability": "view",
      "type": "function"
    },
    {
      "constant": true,
      "inputs": [],
      "name": "chi",
      "outputs": [
        {
          "name": "",
          "type": "uint256"
        }
      ],
      "payable": false,
      "stateMutability": "view",
      "type": "function"
    },
    {
      "inputs": [],
      "payable": false,
      "stateMutability": "nonpayable",
      "type": "constructor"
    },
    {
      "payable": true,
      "stateMutability": "payable",
      "type": "fallback"
    },
    {
      "anonymous": true,
      "inputs": [
        {
          "indexed": true,
          "name": "sig",
          "type": "bytes4"
        },
        {
          "indexed": true,
          "name": "usr",
          "type": "address"
        },
        {
          "indexed": true,
          "name": "arg1",
          "type": "bytes32"
        },
        {
          "indexed": true,
          "name": "arg2",
          "type": "bytes32"
        },
        {
          "indexed": false,
          "name": "data",
          "type": "bytes"
        }
      ],
      "name": "LogNote",
      "type": "event"
    },
    {
      "constant": false,
      "inputs": [
        {
          "name": "guy",
          "type": "address"
        }
      ],
      "name": "rely",
      "outputs": [],
      "payable": false,
      "stateMutability": "nonpayable",
      "type": "function"
    },
    {
      "constant": false,
      "inputs": [
        {
          "name": "guy",
          "type": "address"
        }
      ],
      "name": "deny",
      "outputs": [],
      "payable": false,
      "stateMutability": "nonpayable",
      "type": "function"
    },
    {
      "constant": false,
      "inputs": [
        {
          "name": "what",
          "type": "bytes32"
        },
        {
          "name": "data",
          "type": "uint256"
        }
      ],
      "name": "file",
      "outputs": [],
      "payable": false,
      "stateMutability": "nonpayable",
      "type": "function"
    },
    {
      "constant": false,
      "inputs": [
        {
          "name": "what",
          "type": "bytes32"
        },
        {
          "name": "addr",
          "type": "address"
        }
      ],
      "name": "file",
      "outputs": [],
      "payable": false,
      "stateMutability": "nonpayable",
      "type": "function"
    },
    {
      "constant": false,
      "inputs": [],
      "name": "cage",
      "outputs": [],
      "payable": false,
      "stateMutability": "nonpayable",
      "type": "function"
    },
    {
      "constant": false,
      "inputs": [
        {
          "name": "deposit",
          "type": "uint256"
        }
      ],
      "name": "depositUsingParameter",
      "outputs": [
        {
          "name": "",
          "type": "uint256"
        }
      ],
      "payable": true,
      "stateMutability": "payable",
      "type": "function"
    },
    {
      "constant": false,
      "inputs": [],
      "name": "drip",
      "outputs": [],
      "payable": false,
      "stateMutability": "nonpayable",
      "type": "function"
    },
    {
      "constant": false,
      "inputs": [
        {
          "name": "wad",
          "type": "uint256"
        }
      ],
      "name": "join",
      "outputs": [],
      "payable": true,
      "stateMutability": "payable",
      "type": "function"
    },
    {
      "constant": false,
      "inputs": [
        {
          "name": "wad",
          "type": "uint256"
        }
      ],
      "name": "exit",
      "outputs": [],
      "payable": true,
      "stateMutability": "payable",
      "type": "function"
    },
    {
      "constant": true,
      "inputs": [],
      "name": "getContractBalance",
      "outputs": [
        {
          "name": "",
          "type": "uint256"
        }
      ],
      "payable": false,
      "stateMutability": "view",
      "type": "function"
    }
  ],
  "bytecode": "0x608060405234801561001057600080fd5b5060016000803373ffffffffffffffffffffffffffffffffffffffff1673ffffffffffffffffffffffffffffffffffffffff168152602001908152602001600020819055506b033b2e3c9fd0803ce80000006003819055506b033b2e3c9fd0803ce8000000600481905550426006819055506001600781905550610e45806100996000396000f3fe6080604052600436106101095760003560e01c806369245009116100955780639c52a7f1116100645780639c52a7f1146103e95780639f678cca1461043a578063bf353dbb14610451578063c92aecc4146104b6578063d4e8be83146104e157610109565b8063692450091461034e5780636f9fb98a146103655780637f8661a114610390578063957aa58c146103be57610109565b80632c69ed58116100dc5780632c69ed581461020e578063487bf082146102395780635fcd17fb14610264578063626cb3c5146102a657806365fae35e146102fd57610109565b8063049878f31461010b5780630bebac861461013957806320aba08b1461019e57806329ae8114146101c9575b005b6101376004803603602081101561012157600080fd5b810190808035906020019092919050505061053c565b005b34801561014557600080fd5b506101886004803603602081101561015c57600080fd5b81019080803573ffffffffffffffffffffffffffffffffffffffff169060200190929190505050610639565b6040518082815260200191505060405180910390f35b3480156101aa57600080fd5b506101b3610651565b6040518082815260200191505060405180910390f35b3480156101d557600080fd5b5061020c600480360360408110156101ec57600080fd5b810190808035906020019092919080359060200190929190505050610657565b005b34801561021a57600080fd5b5061022361072f565b6040518082815260200191505060405180910390f35b34801561024557600080fd5b5061024e610735565b6040518082815260200191505060405180910390f35b6102906004803603602081101561027a57600080fd5b810190808035906020019092919050505061073b565b6040518082815260200191505060405180910390f35b3480156102b257600080fd5b506102bb610754565b604051808273ffffffffffffffffffffffffffffffffffffffff1673ffffffffffffffffffffffffffffffffffffffff16815260200191505060405180910390f35b34801561030957600080fd5b5061034c6004803603602081101561032057600080fd5b81019080803573ffffffffffffffffffffffffffffffffffffffff16906020019092919050505061077a565b005b34801561035a57600080fd5b5061036361083f565b005b34801561037157600080fd5b5061037a6108da565b6040518082815260200191505060405180910390f35b6103bc600480360360208110156103a657600080fd5b81019080803590602001909291905050506108f9565b005b3480156103ca57600080fd5b506103d3610a3c565b6040518082815260200191505060405180910390f35b3480156103f557600080fd5b506104386004803603602081101561040c57600080fd5b81019080803573ffffffffffffffffffffffffffffffffffffffff169060200190929190505050610a42565b005b34801561044657600080fd5b5061044f610b07565b005b34801561045d57600080fd5b506104a06004803603602081101561047457600080fd5b81019080803573ffffffffffffffffffffffffffffffffffffffff169060200190929190505050610bb7565b6040518082815260200191505060405180910390f35b3480156104c257600080fd5b506104cb610bcf565b6040518082815260200191505060405180910390f35b3480156104ed57600080fd5b5061053a6004803603604081101561050457600080fd5b8101908080359060200190929190803573ffffffffffffffffffffffffffffffffffffffff169060200190929190505050610bd5565b005b600654421461054a57600080fd5b610593600160003373ffffffffffffffffffffffffffffffffffffffff1673ffffffffffffffffffffffffffffffffffffffff1681526020019081526020016000205482610cca565b600160003373ffffffffffffffffffffffffffffffffffffffff1673ffffffffffffffffffffffffffffffffffffffff168152602001908152602001600020819055506105e260025482610cca565b60028190555060006105f660045483610ce4565b90506106018161073b565b50505961012081016040526020815260e0602082015260e0600060408301376024356004353360003560e01c60e01b61012085a45050565b60016020528060005260406000206000915090505481565b60065481565b60016000803373ffffffffffffffffffffffffffffffffffffffff1673ffffffffffffffffffffffffffffffffffffffff16815260200190815260200160002054146106a257600080fd5b6001600754146106b157600080fd5b60065442146106bf57600080fd5b7f64737200000000000000000000000000000000000000000000000000000000008214156106f357806003819055506106f8565b600080fd5b5961012081016040526020815260e0602082015260e0600060408301376024356004353360003560e01c60e01b61012085a4505050565b60025481565b60035481565b600081341461074957600080fd5b349150819050919050565b600560009054906101000a900473ffffffffffffffffffffffffffffffffffffffff1681565b60016000803373ffffffffffffffffffffffffffffffffffffffff1673ffffffffffffffffffffffffffffffffffffffff16815260200190815260200160002054146107c557600080fd5b60016000808373ffffffffffffffffffffffffffffffffffffffff1673ffffffffffffffffffffffffffffffffffffffff168152602001908152602001600020819055505961012081016040526020815260e0602082015260e0600060408301376024356004353360003560e01c60e01b61012085a45050565b60016000803373ffffffffffffffffffffffffffffffffffffffff1673ffffffffffffffffffffffffffffffffffffffff168152602001908152602001600020541461088a57600080fd5b60006007819055506b033b2e3c9fd0803ce80000006003819055505961012081016040526020815260e0602082015260e0600060408301376024356004353360003560e01c60e01b61012085a450565b60003073ffffffffffffffffffffffffffffffffffffffff1631905090565b610942600160003373ffffffffffffffffffffffffffffffffffffffff1673ffffffffffffffffffffffffffffffffffffffff1681526020019081526020016000205482610d10565b600160003373ffffffffffffffffffffffffffffffffffffffff1673ffffffffffffffffffffffffffffffffffffffff1681526020019081526020016000208190555061099160025482610d10565b60028190555060006109a560045483610ce4565b90503373ffffffffffffffffffffffffffffffffffffffff166108fc3073ffffffffffffffffffffffffffffffffffffffff16319081150290604051600060405180830381858888f19350505050158015610a04573d6000803e3d6000fd5b50505961012081016040526020815260e0602082015260e0600060408301376024356004353360003560e01c60e01b61012085a45050565b60075481565b60016000803373ffffffffffffffffffffffffffffffffffffffff1673ffffffffffffffffffffffffffffffffffffffff1681526020019081526020016000205414610a8d57600080fd5b60008060008373ffffffffffffffffffffffffffffffffffffffff1673ffffffffffffffffffffffffffffffffffffffff168152602001908152602001600020819055505961012081016040526020815260e0602082015260e0600060408301376024356004353360003560e01c60e01b61012085a45050565b600654421015610b1657600080fd5b6000610b4b610b43610b3b60035460065442036b033b2e3c9fd0803ce8000000610d2a565b600454610df0565b600454610d10565b9050610b5960045482610cca565b600481905550426006819055506000610b7460025483610ce4565b9050610b7f8161073b565b5050505961012081016040526020815260e0602082015260e0600060408301376024356004353360003560e01c60e01b61012085a450565b60006020528060005260406000206000915090505481565b60045481565b60016000803373ffffffffffffffffffffffffffffffffffffffff1673ffffffffffffffffffffffffffffffffffffffff1681526020019081526020016000205414610c2057600080fd5b7f766f770000000000000000000000000000000000000000000000000000000000821415610c8e5780600560006101000a81548173ffffffffffffffffffffffffffffffffffffffff021916908373ffffffffffffffffffffffffffffffffffffffff160217905550610c93565b600080fd5b5961012081016040526020815260e0602082015260e0600060408301376024356004353360003560e01c60e01b61012085a4505050565b6000828284019150811015610cde57600080fd5b92915050565b600080821480610d015750828283850292508281610cfe57fe5b04145b610d0a57600080fd5b92915050565b6000828284039150811115610d2457600080fd5b92915050565b60008360008114610dd0576002840660008114610d4957859250610d4d565b8392505b50600283046002850494505b8415610dca578586028687820414610d7057600080fd5b81810181811015610d8057600080fd5b85810497506002870615610dbd578785028589820414158915151615610da557600080fd5b83810181811015610db557600080fd5b878104965050505b5050600285049450610d59565b50610de8565b8360008114610de25760009250610de6565b8392505b505b509392505050565b60006b033b2e3c9fd0803ce8000000610e098484610ce4565b81610e1057fe5b0490509291505056fea165627a7a7230582059d1dbb3d175a25ebe8a10e313c83bc6d1446df57350f4495ea18f962c4225b50029",
  "source": "/// pot.sol -- Dai Savings Rate\n\n// Copyright (C) 2018 Rain <rainbreak@riseup.net>\n//\n// This program is free software: you can redistribute it and/or modify\n// it under the terms of the GNU Affero General Public License as published by\n// the Free Software Foundation, either version 3 of the License, or\n// (at your option) any later version.\n//\n// This program is distributed in the hope that it will be useful,\n// but WITHOUT ANY WARRANTY; without even the implied warranty of\n// MERCHANTABILITY or FITNESS FOR A PARTICULAR PURPOSE.  See the\n// GNU Affero General Public License for more details.\n//\n// You should have received a copy of the GNU Affero General Public License\n// along with this program.  If not, see <https://www.gnu.org/licenses/>.\n\npragma solidity >=0.4.22 <0.6.0;\n\nimport \"./lib.sol\";\n\n/*\n   \"Savings Dai\" is obtained when Dai is deposited into\n   this contract. Each \"Savings Dai\" accrues Dai interest\n   at the \"Dai Savings Rate\".\n   This contract does not implement a user tradeable token\n   and is intended to be used with adapters.\n         --- `save` your `dai` in the `pot` ---\n   - `dsr`: the Dai Savings Rate\n   - `pie`: user balance of Savings Dai\n   - `join`: start saving some dai\n   - `exit`: remove some dai\n   - `drip`: perform rate collection\n*/\n\ncontract Pot is DSNote {\n    // --- Auth ---\n    mapping (address => uint) public wards;\n    function rely(address guy) external note auth { wards[guy] = 1; }\n    function deny(address guy) external note auth { wards[guy] = 0; }\n    modifier auth { require(wards[msg.sender] == 1); _; }\n\n    // --- Data ---\n    mapping (address => uint256) public pie;  // user Savings Dai\n\n    uint256 public Pie;  // total Savings Dai\n    uint256 public dsr;  // the Dai Savings Rate\n    uint256 public chi;  // the Rate Accumulator\n\n    address public vow;  // debt engine\n    uint256 public rho;  // time of last drip\n\n    uint256 public live;  // Access Flag\n\n    // --- Init ---\n    constructor() public {\n        wards[msg.sender] = 1;\n        dsr = ONE;\n        chi = ONE;\n        rho = now;\n        live = 1;\n    }\n\n    // --- Math ---\n    uint256 constant ONE = 10 ** 27;\n    function rpow(uint x, uint n, uint base) internal pure returns (uint z) {\n        assembly {\n            switch x case 0 {switch n case 0 {z := base} default {z := 0}}\n            default {\n                switch mod(n, 2) case 0 { z := base } default { z := x }\n                let half := div(base, 2)  // for rounding.\n                for { n := div(n, 2) } n { n := div(n,2) } {\n                    let xx := mul(x, x)\n                    if iszero(eq(div(xx, x), x)) { revert(0,0) }\n                    let xxRound := add(xx, half)\n                    if lt(xxRound, xx) { revert(0,0) }\n                    x := div(xxRound, base)\n                    if mod(n,2) {\n                        let zx := mul(z, x)\n                        if and(iszero(iszero(x)), iszero(eq(div(zx, x), z))) { revert(0,0) }\n                        let zxRound := add(zx, half)\n                        if lt(zxRound, zx) { revert(0,0) }\n                        z := div(zxRound, base)\n                    }\n                }\n            }\n        }\n    }\n\n    function rmul(uint x, uint y) internal pure returns (uint z) {\n        z = mul(x, y) / ONE;\n    }\n\n    function add(uint x, uint y) internal pure returns (uint z) {\n        require((z = x + y) >= x);\n    }\n\n    function sub(uint x, uint y) internal pure returns (uint z) {\n        require((z = x - y) <= x);\n    }\n\n    function mul(uint x, uint y) internal pure returns (uint z) {\n        require(y == 0 || (z = x * y) / y == x);\n    }\n\n    // --- Administration ---\n    function file(bytes32 what, uint256 data) public note auth {\n        require(live == 1);\n        require(now == rho);\n        if (what == \"dsr\") dsr = data;\n        else revert();\n    }\n\n    function file(bytes32 what, address addr) public note auth {\n        if (what == \"vow\") vow = addr;\n        else revert();\n    }\n\n    function cage() public note auth {\n        live = 0;\n        dsr = ONE;\n    }\n    \n    \n    function depositUsingParameter(uint256 deposit) public payable returns(uint256) {  //deposit ETH using a parameter\n        require(msg.value == deposit);\n        deposit = msg.value;\n        return deposit;\n    }\n\n    // --- Savings Rate Accumulation ---\n    function drip() public note {\n        require(now >= rho);\n        uint chi_ = sub(rmul(rpow(dsr, now - rho, ONE), chi), chi);\n        chi = add(chi, chi_);\n        rho = now;\n        //vat.suck(address(vow), address(this), mul(Pie, chi_));\n        uint256 m = mul(Pie, chi_);\n        depositUsingParameter(m);\n    }\n\n    // --- Savings Dai Management ---\n    function join(uint wad) public payable note{\n        require(now == rho);\n        pie[msg.sender] = add(pie[msg.sender], wad);\n        Pie             = add(Pie,             wad);\n        // vat.move(msg.sender, address(this), mul(chi, wad));\n        uint256 m = mul(chi,wad);\n        depositUsingParameter(m);\n    }\n\n    function exit(uint wad) public payable note {\n        pie[msg.sender] = sub(pie[msg.sender], wad);\n        Pie             = sub(Pie,             wad);\n        // vat.move(address(this), msg.sender, mul(chi, wad));\n        uint256 m = mul(chi,wad);\n        msg.sender.transfer(address(this).balance);\n    }\n    \n    function getContractBalance() public view returns (uint256) { //view amount of DAI the contract contains\n        return address(this).balance;\n    }\n    function() external payable {\n    // this function enables the contract to receive funds\n    }\n}",
  "sourcePath": "/home/sanchaymittal/FarmEasy/contracts/LendingProtocol.sol",
  "compiler": {
    "name": "solc",
    "version": "0.5.8+commit.23d335f2.Emscripten.clang"
  },
  "schemaVersion": "3.0.16",
  "updatedAt": "2019-10-20T09:33:13.198Z",
  "devdoc": {
    "methods": {}
  },
  "userdoc": {
    "methods": {}
  }
}